:020000040800F2
:1000000088060020690B0008BD0B0008BF0B000824
:10001000C10B0008C30B0008C50B0008000000005E
:10002000000000000000000000000000C70B0008F6
:10003000C90B000800000000CB0B0008CD0B000826
:10004000830B0008830B0008830B0008830B000858
:10005000830B0008830B0008830B0008830B000848
:10006000830B0008830B0008830B0008830B000838
:10007000830B0008830B0008830B0008830B000828
:10008000830B0008830B0008830B0008830B000818
:10009000830B0008830B0008830B0008830B000808
:1000A000830B0008830B0008830B0008830B0008F8
:1000B000830B0008830B0008830B0008830B0008E8
:1000C000830B0008830B0008830B0008830B0008D8
:1000D000830B0008CF0B0008830B0008830B00087C
:1000E000830B0008830B0008830B0008830B0008B8
:1000F000830B0008830B0008830B0008830B0008A8
:10010000830B0008830B0008830B0008830B000897
:10011000830B0008830B0008830B0008830B000887
:10012000830B0008830B0008830B0008830B000877
:1001300000F002F800F03AF80AA090E8000C8244BF
:100140008344AAF10107DA4501D100F02FF8AFF29C
:10015000090EBAE80F0013F0010F18BFFB1A43F0A5
:1001600001031847700B0000900B0000103A24BFE9
:1001700078C878C1FAD8520724BF30C830C144BF0C
:1001800004680C607047000000230024002500264E
:10019000103A28BF78C1FBD8520728BF30C148BFEA
:1001A0000B6070471FB51FBD10B510BD00F057FDA7
:1001B0001146FFF7F7FF00F0F7FC00F075FD03B400
:1001C000FFF7F2FF03BC00F07DFD00000CB500223C
:1001D0004C4800920192016841F4803101604FF473
:1001E000A063016801F4003101910099491C00915C
:1001F000019911B900999942F3D10168890333D566
:100200000121019140490A6842F010020A600A681F
:1002100022F003020A600A6842F002020A604168A2
:10022000416041684160416841F4806141604168DA
:1002300021F47C114160416841F4E811416001689A
:1002400041F08071016001688901FCD5416821F0AD
:1002500003014160416841F0020141604168C1F31E
:1002600081010229FAD10CBD01920CBD254810B5BF
:10027000016841F0010101604168244A1140416078
:100280000168234A11400160016821F48021016066
:10029000416821F4FE0141604FF41F018160FFF7C6
:1002A00095FF1C494FF00060086010BD154A10B55D
:1002B0005068194B10F00C01184803D0042901D0E4
:1002C000082901D0036012E05168536801F47011ED
:1002D0004FF0020413F4803F04EB914102D05368C5
:1002E0009B0301D50E4B00E00B4B59430160516855
:1002F0000A4AC1F30311121D515C0268CA40026030
:1003000010BD000000100240002002400000FFF875
:10031000FFFFF6FE08ED00E000127A00000000206A
:1003200000093D008F4910B5884206D10121042003
:1003300000F049FA002104203BE08B49884206D1B5
:100340000121082000F03FFA0021082031E0874910
:10035000884206D10121102000F035FA002110203A
:1003600027E08349884206D10121202000F02BFAA2
:10037000002120201DE07F49884206D10121402034
:1003800000F021FA0021402013E07B49884206D189
:100390000121802000F017FA0021802009E0774930
:1003A00088420AD184150121204600F00CFA002170
:1003B0002046BDE8104000F006BA10BD10B501217E
:1003C000084600F000FA0021BDE81040012000F0CE
:1003D000FAB9F0B5CC78002204F00F03E40601D599
:1003E0008C7823430C784FF00F0C14F0FF0F4FF074
:1003F000010E1BD005680E880EFA02F42640A642B4
:1004000010D196000CFA06F725EA070703FA06F55D
:10041000CE783D43282E02D0482E02D002E044611F
:1004200000E00461521C082AE5D305600A88FF2A0F
:100430001CD94468002202F108060EFA06F50E885F
:100440002E40AE420ED196000CFA06F7BC4303FADA
:1004500006F7CE783C43282E00D14561CE78482E51
:1004600000D10561521C082AE5D34460F0BD4FF667
:10047000FF710180022181700421C1707047024622
:10048000002092680A4200D001207047806880B244
:10049000704702460020D2680A4200D0012070470F
:1004A000C06880B2704701617047416170470AB10E
:1004B0000161704741617047C160704741F480320B
:1004C0008261816182618169806970472C4B10B5BE
:1004D0001A684FF68074224042EA00100843186000
:1004E00010BD2849C8617047F0B5254C002801DAD5
:1004F000E36900E06368450D2E0185B2C0F3015742
:10050000B540C0F30342032F05D0C6020AD5032627
:100510009640B34307E023F07062636823F0706392
:10052000636002E0AB4343F0706201B12A430028EC
:1005300001DAE261F0BD6260F0BD10B58A0721F01A
:1005400003040F49120F21440F238C6893409C43EE
:100550008C608B68904003438B6010BD0949C1F8E3
:10056000DC00704700080140000C01400010014011
:100570000014014000180140001C0140002001400F
:100580000000014000002042A548016841F001013F
:1005900001604168A34A114041600168A24A1140CC
:1005A0000160016821F480210160416821F4FE01AD
:1005B00041604FF41F018160704799490A6822F435
:1005C00080320A600A6822F480220A60B0F5803F17
:1005D00007D0B0F5802F03D1086840F4A020086050
:1005E0007047086840F48030F9E703460020590955
:1005F0008B4A01290AD002290AD0516A03F01F024E
:10060000012393400B4200D0012070471168F5E7A9
:10061000116AF3E718B500204FF4A0640090312070
:10062000FFF7E3FF0099491C0091A14201D0002887
:10063000F5D03120FFF7D9FF002800D0012018BDE8
:10064000774A116821F0F80141EAC0001060704754
:10065000764908607047724B5A68084322F47C124E
:100660001043586070477149086670476C4A51687A
:1006700021F003010143516070476948406800F070
:100680000C007047664A516821F0F0010143516047
:100690007047634A516821F4E0610143516070473B
:1006A0005F4A516821F4605141EAC00050607047D0
:1006B0005B4A0029517A01D0014300E08143517225
:1006C00070475A49C1F8D8007047554A516821F41B
:1006D00040410143516070475149002281F8202078
:1006E00081F82020012802D0042802D1052081F8B9
:1006F000200070474E490860704749490A6A024322
:100700000A6270474A4944390860704730B5444A24
:100710005168484B11F00C0103D0042901D008297D
:1007200001D0036012E05168536801F470114FF07A
:10073000020413F4803F04EB914102D053689B0301
:1007400001D53D4B00E03B4B5943016051680F23FD
:1007500003EA1111394B5C5C0168E1404160546867
:10076000072505EA14241C5D21FA04F4846054680A
:1007700005EAD4241B5DD940C1605268032303EA13
:1007800092322E4B1B1F9A5CB1FBF2F1016130BD1E
:10079000234A0029516901D0014300E0814351619E
:1007A00070471F4A0029916901D0014300E081434D
:1007B000916170471A4A0029D16901D0014300E0D4
:1007C0008143D1617047164A0029D16801D00143A5
:1007D00000E08143D1607047114A0029116901D0BE
:1007E000014300E0814311617047114940390860BD
:1007F00070470E49C86470470949C8717047084876
:10080000416A41F0807141627047054A014600200B
:1008100092680A4200D001207047014988727047EF
:10082000001002400000FFF8FFFFF6FE0000424209
:100830008004424200127A0000093D0018000020A6
:10084000C44910B588420AD101218C032046FFF724
:10085000BAFF2046BDE810400021FFF7B4BFBE49F3
:10086000884202D101214C0410E0BC49884202D1E7
:1008700001218C040AE0BA49884202D10121CC044A
:1008800004E0B84988420AD101210C052046FFF74F
:10089000A3FF2046BDE810400021FFF79DBF10BD1B
:1008A00030B50446008A85B00D464CF6FF7108400D
:1008B000E98801432182A0894EF6F3110840A988F6
:1008C0002A8911436A8902431143A181A08A4FF604
:1008D000FF410840A9890143A1826846FFF716FF3E
:1008E0009C48844201D1039800E00298A189090440
:1008F00000EBC00101EB0010296801D5490000E0C0
:100900008900B0FBF1F06422B0FBF2F109010B09A0
:100910006FF018056B4300EB8300A3891D044FF0B3
:10092000320306D503EBC000B0FBF2F000F0070085
:1009300005E003EB0010B0FBF2F000F00F000843FD
:10094000208105B030BD4FF4165101600021818037
:10095000C18001810C2242818181704710B5028AD9
:100960004FF2FF031A400B884C8823438C88C988B8
:100970000C4323431343038210BD002101804180B7
:100980008180C18070470029818902D041F40051E3
:1009900001E021F400518181704710B5C1F3421389
:1009A00001F01F040121A140012B07D0022B07D029
:1009B0001430002A026805D00A4304E00C30F8E73E
:1009C0001030F6E78A43026010BD002A828A01D007
:1009D0000A4300E08A4382827047028A22F00F02B3
:1009E0000282028A0A4302827047828922F40062EC
:1009F000828182890A43828170470029818902D0DD
:100A000041F0020101E021F0020181817047028A78
:100A100022F020020282028A0A43028270470029E1
:100A2000018A02D041F4804101E021F48041018239
:100A30007047C1F30801818070478088C0F30800C7
:100A40007047818941F0010181817047028BD2B2E8
:100A50000283028B42EA012101837047028B02F478
:100A60007F420283028B0A43028370470029818AF6
:100A700002D041F0200101E021F020018182704785
:100A80000029818A02D041F0100101E021F010011B
:100A9000818270470029818A02D041F0080101E07B
:100AA00021F00801818270470029818902D041F438
:100AB000004101E0C1F30E01818170470029818A64
:100AC00002D041F4006101E021F4006181827047AD
:100AD000828A22F004028282828A0A4382827047DA
:100AE0000029818A02D041F0020101E021F00201D7
:100AF000818270470246002012880A4200D00120FD
:100B00007047C9430180704770B501F01F05012689
:100B10000024C1F3421306FA05F2012B0FD0022B79
:100B20000FD0838A4FEA11210088134206FA01F69A
:100B300000EA060001D000B10124204670BD83897F
:100B4000F0E7038AEEE70A0A01219140C9430180D8
:100B50007047000000380140004400400048004059
:100B6000004C0040005000400948804709480047B9
:100B7000FEE7FEE7FEE7FEE7FEE7FEE7FEE7FEE74D
:100B8000FEE7FEE704480549054A064B70470000AA
:100B90006D0200083101000888000020880600204E
:100BA000880200208802002000F026F8024C202154
:100BB0002046FFF77AFCFAE7000C01407047FEE799
:100BC000FEE7FEE7FEE7704770477047704710B5D5
:100BD000084C40F225512046FFF796FF002808D028
:100BE0002046FFF72AFFC1B22046BDE81040FFF7BC
:100BF00020BF10BD0038014038B501210820FFF7A3
:100C0000D0FD2020ADF8000010208DF80300032057
:100C1000104C8DF8020069462046FFF7DAFB0121EF
:100C2000ADF8001069462046FFF7D3FB0221ADF86E
:100C3000001069462046FFF7CCFB20212046FFF735
:100C400032FC01212046FFF72EFC02212046FFF74F
:100C50002AFC38BD000C014070477047704775464C
:100C600000F02CF8AE4605006946534620F0070018
:100C7000854618B020B5FFF785FFBDE820404FF04E
:100C800000064FF000074FF000084FF0000B21F076
:100C90000701AC46ACE8C009ACE8C009ACE8C00943
:100CA000ACE8C0098D46704710B50446AFF300802C
:100CB0002046BDE81040FFF782BA000000487047A8
:100CC0002800002001491820ABBEFEE726000200E4
:100CD00070470000F40C000800000020280000000D
:100CE0006C0100081C0D00082800002060060000B0
:100CF0008801000800A24A04000000000000000073
:100D000001020304060708090204060800000000A7
:0C0D1000010203040102030406070809A5
:0400000508000131BD
:00000001FF
