:020000040800F2
:1000000078060020CD010008C9030008C5030008D8
:10001000C7030008E90200085905000800000000B5
:1000200000000000000000000000000005040008BF
:10003000EB02000800000000EB030008B104000818
:10004000E7010008E7010008E7010008E7010008F0
:10005000E7010008E7010008E7010008E7010008E0
:10006000E7010008E7010008E7010008E7010008D0
:10007000E7010008E7010008E7010008E7010008C0
:10008000E7010008E7010008E7010008E7010008B0
:10009000E7010008E7010008E7010008E7010008A0
:1000A000E7010008E7010008E7010008E701000890
:1000B000E7010008E7010008E7010008E701000880
:1000C000E7010008E7010008E7010008E701000870
:1000D000E7010008E7010008E7010008E701000860
:1000E000E7010008E7010008E7010008E701000850
:1000F000E7010008E7010008E7010008E701000840
:10010000E7010008E7010008E7010008E70100082F
:10011000E7010008E7010008E7010008E70100081F
:10012000E7010008E7010008E7010008E70100080F
:1001300000F002F800F03AF80AA090E8000C8244BF
:100140008344AAF10107DA4501D100F02FF8AFF29C
:10015000090EBAE80F0013F0010F18BFFB1A43F0A5
:10016000010318474404000064040000103A24BF4F
:1001700078C878C1FAD8520724BF30C830C144BF0C
:1001800004680C607047000000230024002500264E
:10019000103A28BF78C1FBD8520728BF30C148BFEA
:1001A0000B6070471FB51FBD10B510BD00F031F8D2
:1001B0001146FFF7F7FF00F0D1F900F04FF803B454
:1001C000FFF7F2FF03BC00F057F800000948804732
:1001D00009480047FEE7FEE7FEE7FEE7FEE7FEE729
:1001E000FEE7FEE7FEE7FEE704480549054A064B41
:1001F0007047000009050008310100087800002060
:1002000078060020780200207802002070477047AE
:100210007047754600F02CF8AE4605006946534617
:1002200020F00700854618B020B5FFF7DDFFBDE8D8
:1002300020404FF000064FF000074FF000084FF04D
:10024000000B21F00701AC46ACE8C009ACE8C009DE
:10025000ACE8C009ACE8C0098D46704710B504464B
:10026000AFF300802046BDE81040FFF7A8BF0000B4
:10027000004870471800002001491820ABBEFEE777
:10028000260002007047000038B50121082000F068
:10029000ADF82020ADF8000010208DF803000320F9
:1002A000104C8DF802006946204600F039F8012113
:1002B000ADF800106946204600F032F80221ADF892
:1002C00000106946204600F02BF82021204600F05F
:1002D00077F80121204600F073F80221204600F053
:1002E0006FF838BD000C0140FEE7704701B50348C8
:1002F0000099016001680029FCD108BD14000020AC
:1003000001B44FF47A71009801B04843AFF3008014
:1003100001B40A21009801B0B0FBF1F0FFF7E6BF8D
:10032000F0B5CC78002204F00F03E40601D58C78F8
:1003300023430C784FF00F0C14F0FF0F4FF0010E19
:100340001BD005680E880EFA02F42640A64210D192
:1003500096000CFA06F725EA070703FA06F5CE78A9
:100360003D43282E02D0482E02D002E0446100E036
:100370000461521C082AE5D305600A88FF2A1CD9AB
:100380004468002202F108060EFA06F50E882E4097
:10039000AE420ED196000CFA06F7BC4303FA06F7FC
:1003A000CE783C43282E00D14561CE78482E00D12E
:1003B0000561521C082AE5D34460F0BD41617047D5
:1003C00001617047FEE7FEE770470907090E002844
:1003D00006DA00F00F0000F1E02080F8141D7047ED
:1003E00000F1E02080F8001470477047044A0029AB
:1003F000916901D0014300E08143916170470000A1
:1004000000100240704700000CB500222648009200
:100410000192016841F4803101604FF4A0630168EA
:1004200001F4003101910099491C0091019911B921
:1004300000999942F3D10168890333D501210191D3
:100440001A490A6842F010020A600A6822F00302A0
:100450000A600A6842F002020A604168416041682D
:100460004160416841F480614160416821F47C1140
:100470004160416841F4E8114160016841F08071D8
:10048000016001688901FCD5416821F003014160E8
:10049000416841F0020141604168C1F381010229D4
:1004A000FAD10CBD01920CBD0010024000200240A8
:1004B00003480168002902D00168491E01607047A5
:1004C0001400002070B500214D1E2846FFF77DFF67
:1004D0000B480C490068B0FBF1F1B1F1807F0ED2FE
:1004E00021F07F404FF0E024401E60610F2128463C
:1004F000FFF76BFF0020A0610720206170BDFEE7C1
:1005000000000020A08601000F4810B5016841F0EE
:100510000101016041680D4A1140416001680C4AC7
:1005200011400160016821F480210160416821F4DB
:10053000FE0141604FF41F018160FFF765FF05492F
:100540004FF00060086010BD001002400000FFF88E
:10055000FFFFF6FE08ED00E0FEE70000FFF794FE67
:10056000FFF7B0FF0F4D4FF47A7420212846FFF7B4
:1005700025FF2046FFF7C4FE20212846FFF720FF75
:100580002046FFF7BDFE01212846FFF717FF204652
:10059000FFF7B6FE01212846FFF712FF2046FFF7BE
:1005A000AFFEE2E7000C0140C80500080000002093
:1005B000180000006C010008E00500081800002089
:1005C000600600008801000800A24A040000000044
:1005D00000000000010203040607080900000000F3
:0400000508000131BD
:00000001FF
