:020000040800F2
:10000000200400204901000879030008E3020008E9
:10001000770300082D020008D50600080000000044
:10002000000000000000000000000000690400085B
:100030002F020008000000007B03000815050008DF
:100040006301000863010008630100086301000800
:1000500063010008630100086301000863010008F0
:1000600063010008630100086301000863010008E0
:1000700063010008630100086301000863010008D0
:1000800063010008630100086301000863010008C0
:1000900063010008630100086301000863010008B0
:1000A00063010008630100086301000863010008A0
:1000B0006301000863010008630100086301000890
:1000C0006301000863010008630100086301000880
:1000D0006301000863010008630100086301000870
:1000E0006301000863010008630100086301000860
:1000F0006301000863010008630100086301000850
:10010000630100086301000863010008630100083F
:10011000630100086301000863010008630100082F
:10012000630100086301000863010008630100081F
:10013000DFF810D000F01AF8004800474D0700081B
:10014000AFF300802004002006488047064800479F
:10015000FEE7FEE7FEE7FEE7FEE7FEE7FEE7FEE777
:10016000FEE7FEE72905000831010008064C074DAF
:1001700006E0E06840F0010394E807009847103477
:10018000AC42F6D3FFF7D8FFFC0700081C080008B4
:1001900038B50121142000F0F1F80120ADF800007D
:1001A00004248DF803406946064800F041F8E00257
:1001B000ADF800008DF803406946034800F038F8B8
:1001C00038BD0000000801400010014038B5012191
:1001D000082000F0D3F82020ADF8000010208DF8A2
:1001E00003000320104C8DF802006946204600F001
:1001F0001FF80121ADF800106946204600F018F8FC
:100200000221ADF800106946204600F011F82021C7
:10021000204600F064F80121204600F060F8022139
:10022000204600F05CF838BD000C0140FEE7704746
:10023000F0B5CC78002204F00F03E40601D58C78E9
:1002400023430C784FF00F0C14F0FF0F4FF0010E0A
:100250001BD005680E880EFA02F42640A64210D183
:1002600096000CFA06F725EA070703FA06F5CE789A
:100270003D43282E02D0482E02D002E0446100E027
:100280000461521C082AE5D305600A88FF2A1CD99C
:100290004468002202F108060EFA06F50E882E4088
:1002A000AE420ED196000CFA06F7BC4303FA06F7ED
:1002B000CE783C43282E00D14561CE78482E00D11F
:1002C0000561521C082AE5D34460F0BD02460020B7
:1002D00092680A4200D00120704741617047016175
:1002E0007047FEE702494CF6CC40086070470000BA
:1002F0000030004000F014B870B504460D4645F2D9
:10030000555000F021F8204600F012F8284600F081
:1003100015F800F005F8BDE87040FFF7E3BF0000F6
:1003200002494AF6AA2008607047000000300040E9
:100330000149486070470000003000400149886072
:10034000704700000030004001490860704700001D
:100350000030004070B50C460546FFF7B7FF012896
:1003600001D0002070BD21462846FFF7AFFF0128CD
:10037000F9D0012070BDFEE770477047044A00299C
:10038000916901D0014300E0814391617047000011
:10039000001002400248416A41F08071416270479A
:1003A0000010024030B5204A5168204B11F00C017A
:1003B00003D0042901D0082901D0036012E051685C
:1003C000536801F470114FF0020413F4803F04EB02
:1003D000914102D053689B0301D5154B00E0134BAC
:1003E0005943016051680F2303EA1111114B5C5C02
:1003F0000168E14041605468072505EA14241C5D4A
:1004000021FA04F48460546805EAD4241B5DD940C1
:10041000C1605268032303EA9232064B1B1F9A5CA9
:10042000B1FBF2F1016130BD0010024000127A0010
:1004300000093D0004000020034600205909094A34
:1004400001290AD002290AD0516A03F01F020123B0
:1004500093400B4200D0012070471168F5E7116A04
:10046000F3E7000000100240704700000CB50022C6
:10047000264800920192016841F4803101604FF4F6
:10048000A063016801F4003101910099491C0091B9
:10049000019911B900999942F3D10168890333D5C3
:1004A000012101911A490A6842F010020A600A68A3
:1004B00022F003020A600A6842F002020A60416800
:1004C000416041684160416841F480614160416838
:1004D00021F47C114160416841F4E81141600168F8
:1004E00041F08071016001688901FCD5416821F00B
:1004F00003014160416841F0020141604168C1F37C
:1005000081010229FAD10CBD01920CBD00100240FC
:100510000020024003480168002902D00168491EFA
:1005200001607047140000200F4810B5016841F0C9
:100530000101016041680D4A1140416001680C4AA7
:1005400011400160016821F480210160416821F4BB
:10055000FE0141604FF41F018160FFF787FF0549ED
:100560004FF00060086010BD001002400000FFF86E
:10057000FFFFF6FE08ED00E00029818902D041F47A
:10058000005101E021F400518181704702460020B2
:1005900012880A4200D001207047000030B504469E
:1005A000008A85B00D464CF6FF710840E98801438A
:1005B0002182A0894EF6F3110840A9882A891143A7
:1005C0006A8902431143A181A08A4FF6FF41084086
:1005D000A9890143A1826846FFF7E4FE19488442D5
:1005E00001D1039800E00298A189090400EBC00141
:1005F00001EB0010296801D5490000E08900B0FB3B
:10060000F1F06422B0FBF2F109010B096FF018055B
:100610006B4300EB8300A3891D044FF0320306D522
:1006200003EBC000B0FBF2F000F0070005E003EBC5
:100630000010B0FBF2F000F00F000843208105B07D
:1006400030BD000000380140C1F3080181807047CF
:1006500010B586B001210420FFF790FE0121880328
:10066000FFF78CFE4FF40070ADF8100018208DF8E5
:1006700013000320154C8DF8120004A92046FFF743
:10068000D7FD2115ADF8101004218DF8131004A921
:100690002046FFF7CDFD4FF4E13000900020ADF88B
:1006A0000400ADF80600ADF80800ADF80C000C2011
:1006B000074CADF80A0069462046FFF76FFF01219D
:1006C0002046FFF759FF06B010BD000000080140AA
:1006D00000380140FEE70000014A024900F013B86B
:1006E000290700081800002002E008C8121F08C1EE
:1006F000002AFAD170477047002001E001C1121FA3
:10070000002AFBD170472DE9F04116460F460446FA
:10071000002503E03946B047641C6D1C2078002892
:10072000F8D12846BDE8F08170B5074D0446C1B246
:10073000284600F057F880212846FFF727FF0028B9
:10074000F9D0204670BD000000380140FFF73EFDA3
:10075000FFF71EFDFFF77CFF40F271210420FFF739
:10076000CBFD7D20FFF768FE114C48B111A0FFF7CB
:10077000B3FF20212046FFF7B0FDFFF70BFE06E098
:1007800010A0FFF7A9FF02212046FFF7A6FD114D9B
:1007900001212846FFF7DEFD0128F9D10EA0FFF761
:1007A0009BFFFFF7A7FD01212046FFF796FDEFE72E
:1007B000000C0140495744472052657365740D0A87
:1007C000000000004F746865722052657365740DF7
:1007D0000A0000000008014049574447204665656B
:1007E000640D0A0010B50446FFF72EFF8021204655
:1007F000FFF7CCFE0028F9D010BD00001C0800084F
:10080000000000201C000000E8060008380800086E
:100810001C00002004040000F8060008020406087A
:100820000000000001020304010203040607080996
:080830000000000000000000C0
:0400000508000131BD
:00000001FF
