:020000040800F2
:1000000038040020490100089D02000899020008F8
:100010009B020008F101000825060008000000000E
:100020000000000000000000000000006D03000858
:10003000F301000800000000BF02000819040008D6
:100040006301000863010008630100086301000800
:1000500063010008630100086301000863010008F0
:1000600063010008630100086301000863010008E0
:1000700063010008630100086301000863010008D0
:1000800063010008630100086301000863010008C0
:1000900063010008630100086301000863010008B0
:1000A00063010008630100086301000863010008A0
:1000B0006301000863010008630100086301000890
:1000C0006301000863010008630100086301000880
:1000D0006301000863010008630100086301000870
:1000E0006301000863010008630100086301000860
:1000F0006301000863010008630100086301000850
:10010000630100086301000863010008630100083F
:10011000630100086301000863010008630100082F
:10012000630100086301000863010008630100081F
:10013000DFF810D000F01AF800480047C1060008A8
:10014000AFF3008038040020064880470648004787
:10015000FEE7FEE7FEE7FEE7FEE7FEE7FEE7FEE777
:10016000FEE7FEE77104000831010008064C074D68
:1001700006E0E06840F0010394E807009847103477
:10018000AC42F6D3FFF7D8FF240800084408000863
:1001900038B50121082000F093F82020ADF80000C8
:1001A00010208DF803000320104C8DF802006946E2
:1001B000204600F01FF80121ADF8001069462046E6
:1001C00000F018F80221ADF800106946204600F052
:1001D00011F82021204600F05DF80121204600F0B2
:1001E00059F80221204600F055F838BD000C0140B6
:1001F000FEE77047F0B5CC78002204F00F03E40668
:1002000001D58C7823430C784FF00F0C14F0FF0FBE
:100210004FF0010E1BD005680E880EFA02F426403E
:10022000A64210D196000CFA06F725EA070703FA52
:1002300006F5CE783D43282E02D0482E02D002E0AB
:10024000446100E00461521C082AE5D305600A8875
:10025000FF2A1CD94468002202F108060EFA06F5AE
:100260000E882E40AE420ED196000CFA06F7BC4323
:1002700003FA06F7CE783C43282E00D14561CE78AC
:10028000482E00D10561521C082AE5D34460F0BD18
:100290004161704701617047FEE7FEE7704709075B
:1002A000090E002806DA00F00F0000F1E02080F8C7
:1002B000141D704700F1E02080F80014704770476B
:1002C000044A0029916901D0014300E08143916112
:1002D000704700000010024030B5204A5168204BA2
:1002E00011F00C0103D0042901D0082901D00360CA
:1002F00012E05168536801F470114FF0020413F4D6
:10030000803F04EB914102D053689B0301D5154B0C
:1003100000E0134B5943016051680F2303EA1111A8
:10032000114B5C5C0168E14041605468072505EAB7
:1003300014241C5D21FA04F48460546805EAD42472
:100340001B5DD940C1605268032303EA9232064B19
:100350001B1F9A5CB1FBF2F1016130BD001002403D
:1003600000127A0000093D001800002070470000CC
:100370000CB50022264800920192016841F48031B8
:1003800001604FF4A063016801F40031019100990C
:10039000491C0091019911B900999942F3D1016862
:1003A000890333D5012101911A490A6842F01002EC
:1003B0000A600A6822F003020A600A6842F0020238
:1003C0000A604168416041684160416841F4806170
:1003D0004160416821F47C114160416841F4E811B9
:1003E0004160016841F08071016001688901FCD5BC
:1003F000416821F003014160416841F00201416020
:100400004168C1F381010229FAD10CBD01920CBDF2
:10041000001002400020024003480168002902D079
:100420000168491E016070472800002070B5002156
:100430004D1E2846FFF733FF0B480C490068B0FB00
:10044000F1F1B1F1807F0ED221F07F404FF0E02436
:10045000401E60610F212846FFF721FF0020A061A8
:100460000720206170BDFEE700000020A08601008B
:100470000F4810B5016841F00101016041680D4A63
:100480001140416001680C4A11400160016821F48B
:1004900080210160416821F4FE0141604FF41F0199
:1004A0008160FFF765FF05494FF00060086010BDEF
:1004B000001002400000FFF8FFFFF6FE08ED00E02C
:1004C0000029818902D041F4005101E021F400515A
:1004D000818170470246002012880A4200D0012024
:1004E0007047000030B50446008A85B00D464CF6D2
:1004F000FF710840E98801432182A0894EF6F3117B
:100500000840A9882A8911436A8902431143A181BD
:10051000A08A4FF6FF410840A9890143A18268469D
:10052000FFF7DAFE1948844201D1039800E00298EF
:10053000A189090400EBC00101EB0010296801D575
:10054000490000E08900B0FBF1F06422B0FBF2F159
:1005500009010B096FF018056B4300EB8300A389B9
:100560001D044FF0320306D503EBC000B0FBF2F0E0
:1005700000F0070005E003EB0010B0FBF2F000F024
:100580000F000843208105B030BD00000038014055
:100590008088C0F308007047C1F30801818070476C
:1005A00010B586B001210420FFF78AFE01218803DF
:1005B000FFF786FE4FF40070ADF8100018208DF89C
:1005C00013000320154C8DF8120004A92046FFF7F4
:1005D00011FE2115ADF8101004218DF8131004A997
:1005E0002046FFF707FE4FF4E13000900020ADF801
:1005F0000400ADF80600ADF80800ADF80C000C20C2
:10060000074CADF80A0069462046FFF76BFF012151
:100610002046FFF755FF06B010BD0000000801405E
:1006200000380140FEE70000014A024900F013B81B
:10063000990600083000002002E008C8121F08C117
:10064000002AFAD170477047002001E001C1121F53
:10065000002AFBD170472DE9F04116460F460446AB
:10066000002503E03946B047641C6D1C2078002843
:10067000F8D12846BDE8F08110B5064C202120466F
:10068000FFF728FF0028F9D02046BDE81040FFF70B
:100690007FBF00000038014070B5074D0446C1B26D
:1006A000284600F0B3F880212846FFF713FF002802
:1006B000F9D0204670BD000000380140FFF7DCBFD4
:1006C000FFF7B4FEFFF764FDFFF76AFF00F02EF8B6
:1006D000144C1548FFF7F2FFC1B231390729F8D29F
:1006E000DFE801F00406080D0F111600202102E0DA
:1006F000012100E002212046FFF7CAFDE9E72021A1
:1007000002E0012100E002212046FFF7C3FDE0E7FF
:1007100020212046FFF7BEFD01212046FFF7BAFD4C
:10072000F1E70000000C01402C00002010B50DA0E6
:10073000FFF77AFF12A0FFF777FF15A0FFF774FF0E
:1007400018A0FFF771FF1CA0FFF76EFF1FA0FFF7B7
:100750006BFF23A0FFF768FFBDE8104025A0FFF75F
:1007600063BF00000D0A204C454420436F6E747235
:100770006F6C20436F6D6D616E6473203A0D0A00DB
:10078000312E20524544204C4544204F4E0D0A0046
:10079000322E20475245454E204C4544204F4E0DA9
:1007A0000A000000332E20424C5545204C45442081
:1007B0004F4E0D0A00000000342E20524544204CBC
:1007C0004544204F46460D0A00000000352E2047C4
:1007D0005245454E204C4544204F46460D0A0000E8
:1007E000362E20424C5545204C4544204F46460D60
:1007F0000A000000372E205455524E204F46462006
:10080000414C4C204C4544530000000010B50446B8
:10081000FFF7C2FE80212046FFF75CFE0028F9D0DA
:1008200010BD000044080008000000203400000053
:10083000380600087808000834000020040400008E
:100840004806000800A24A04000000000000000062
:10085000010203040607080902040608000000005C
:100860000102030401020304060708090000000056
:08087000000000000000000080
:0400000508000131BD
:00000001FF
