:020000040800F2
:100000002004002049010008CD020008C9020008B0
:10001000CB020008F1010008F90700080000000009
:1000200000000000000000000000000011040008B3
:10003000F30100080000000049030008BD040008A7
:100040006301000863010008630100086301000800
:1000500063010008630100086301000863010008F0
:1000600063010008630100086301000863010008E0
:1000700063010008630100086301000863010008D0
:1000800063010008630100086301000863010008C0
:1000900063010008630100086301000863010008B0
:1000A00063010008630100086301000863010008A0
:1000B0006301000863010008630100086301000890
:1000C0006301000863010008630100086301000880
:1000D0006301000863010008630100086301000870
:1000E0006301000863010008630100086301000860
:1000F0006301000863010008630100086301000850
:10010000630100086301000863010008630100083F
:10011000630100086301000821050008630100086D
:10012000630100086301000863010008630100081F
:10013000DFF810D000F01AF80048004771080008F6
:10014000AFF300802004002006488047064800479F
:10015000FEE7FEE7FEE7FEE7FEE7FEE7FEE7FEE777
:10016000FEE7FEE7D104000831010008064C074D08
:1001700006E0E06840F0010394E807009847103477
:10018000AC42F6D3FFF7D8FFD0080008F00800080B
:1001900038B50121082000F0E5F82020ADF8000076
:1001A00010208DF803000320104C8DF802006946E2
:1001B000204600F01FF80121ADF8001069462046E6
:1001C00000F018F80221ADF800106946204600F052
:1001D00011F82021204600F064F80121204600F0AB
:1001E00060F80221204600F05CF838BD000C0140A8
:1001F000FEE77047F0B5CC78002204F00F03E40668
:1002000001D58C7823430C784FF00F0C14F0FF0FBE
:100210004FF0010E1BD005680E880EFA02F426403E
:10022000A64210D196000CFA06F725EA070703FA52
:1002300006F5CE783D43282E02D0482E02D002E0AB
:10024000446100E00461521C082AE5D305600A8875
:10025000FF2A1CD94468002202F108060EFA06F5AE
:100260000E882E40AE420ED196000CFA06F7BC4323
:1002700003FA06F7CE783C43282E00D14561CE78AC
:10028000482E00D10561521C082AE5D34460F0BD18
:1002900002460020D2680A4200D001207047416126
:1002A00070470161704770B50C460546FFF7F0FFD7
:1002B00001282146284603D0BDE87040FFF7F1BF72
:1002C000BDE87040FFF7EBBFFEE7FEE770470000B8
:1002D00030B50F23C27801780125F2B1144A1268B3
:1002E00001F1E02102F4E062C2F5E062120AC2F11B
:1002F0000404D3404278A24084781C401443220175
:1003000081F80024007800F01F018D404009800032
:1003100000F1E020C0F8005130BD01F01F00854021
:100320004809800000F1E020C0F8805130BD000095
:100330000CED00E0024908430249086070470000E4
:100340000000FA050CED00E070470000044A0029A7
:10035000D16901D0014300E08143D16170470000C1
:1003600000100240044A0029916901D0014300E0D5
:1003700081439161704700000010024030B5204A6F
:100380005168204B11F00C0103D0042901D0082939
:1003900001D0036012E05168536801F470114FF00E
:1003A000020413F4803F04EB914102D053689B0395
:1003B00001D5154B00E0134B5943016051680F23E1
:1003C00003EA1111114B5C5C0168E1404160546823
:1003D000072505EA14241C5D21FA04F4846054689E
:1003E00005EAD4241B5DD940C1605268032303EAA7
:1003F0009232064B1B1F9A5CB1FBF2F1016130BDDA
:100400000010024000127A0000093D0004000020A4
:10041000704700000CB50022264800920192016846
:1004200041F4803101604FF4A063016801F40031B0
:1004300001910099491C0091019911B900999942C3
:10044000F3D10168890333D5012101911A490A6862
:1004500042F010020A600A6822F003020A600A6889
:1004600042F002020A6041684160416841604168AF
:1004700041F480614160416821F47C114160416830
:1004800041F4E8114160016841F080710160016848
:100490008901FCD5416821F003014160416841F0C8
:1004A000020141604168C1F381010229FAD10CBD0A
:1004B00001920CBD00100240002002400348016878
:1004C000002902D00168491E016070471400002015
:1004D0000F4810B5016841F00101016041680D4A03
:1004E0001140416001680C4A11400160016821F42B
:1004F00080210160416821F4FE0141604FF41F0139
:100500008160FFF787FF05494FF00060086010BD6C
:10051000001002400000FFF8FFFFF6FE08ED00E0CB
:1005200010B5094C0121204600F022F8002809D01E
:1005300006490A68521C0A602046BDE810400121A5
:1005400000F009B810BD00000010004018000020A5
:10055000C94301827047C94301827047002901885D
:1005600002D041F0010101E021F00101018070475A
:1005700002460020138A92890B4202EA010202D04D
:10058000002A00D001207047002A828901D00A4346
:1005900000E08A43828170471FB54FF4E060FFF7A7
:1005A000C9FE36208DF8000000208DF801000120E2
:1005B0008DF802008DF803006846FFF789FE0121DF
:1005C0001020FFF7C3FE40F2E730ADF808004720E7
:1005D0000A4CADF8040001A9204600F011F80121F1
:1005E0002046FFF7B5FF012211462046FFF7CCFF5A
:1005F00001212046FFF7B2FF1FBD000000100040A0
:1006000030B502881B4C1C4DA0420DD0A8420BD027
:10061000B0F1804F08D0194B984205D0184B984242
:1006200002D0184B984203D122F070034A881A4333
:10063000154B984206D0154B984203D022F44073D4
:10064000CA881A4302808A8882850A880285A04265
:100650000AD0A84208D00E4A904205D00D4A9042D6
:1006600002D00D4A904201D1097A0186012181828E
:1006700030BD0000002C0140003401400004004067
:1006800000080040000C0040001000400014004032
:100690000040014000440140004801400029818998
:1006A00002D041F4005101E021F4005181817047F2
:1006B0000246002012880A4200D001207047000044
:1006C00030B50446008A85B00D464CF6FF710840EF
:1006D000E98801432182A0894EF6F3110840A988D8
:1006E0002A8911436A8902431143A181A08A4FF6E6
:1006F000FF410840A9890143A1826846FFF73EFEF9
:100700001948844201D1039800E00298A1890904A4
:1007100000EBC00101EB0010296801D5490000E0A1
:100720008900B0FBF1F06422B0FBF2F109010B0982
:100730006FF018056B4300EB8300A3891D044FF095
:10074000320306D503EBC000B0FBF2F000F0070067
:1007500005E003EB0010B0FBF2F000F00F000843DF
:10076000208105B030BD000000380140C1F3080110
:100770008180704710B586B001210420FFF7F2FD9B
:1007800001218803FFF7EEFD4FF40070ADF8100073
:1007900018208DF813000320154C8DF8120004A9C1
:1007A0002046FFF727FD2115ADF8101004218DF824
:1007B000131004A92046FFF71DFD4FF4E13000900F
:1007C0000020ADF80400ADF80600ADF80800ADF863
:1007D0000C000C20074CADF80A0069462046FFF7D4
:1007E0006FFF01212046FFF759FF06B010BD000042
:1007F0000008014000380140FEE70000014A0249BC
:1008000000F013B84D0800081C00002002E008C8E2
:10081000121F08C1002AFAD170477047002001E07A
:1008200001C1121F002AFBD170472DE9F041164685
:100830000F460446002503E03946B047641C6D1C92
:1008400020780028F8D12846BDE8F08170B5074D22
:100850000446C1B2284600F02FF880212846FFF751
:1008600027FF0028F9D0204670BD00000038014065
:10087000FFF780FFFFF78CFCFFF78EFE084C094F57
:100880004FF47A7600252068B042FCD12560202103
:100890003846FFF708FD04A0FFF7B0FFF3E70000BC
:1008A00018000020000C01404C454420544F47479D
:1008B0004C450D0A0000000010B50446FFF756FF36
:1008C00080212046FFF7F4FE0028F9D010BD00007B
:1008D000F008000800000020200000000C080008BC
:1008E0001009000820000020000400001C08000877
:1008F00002040608000000000102030401020304D0
:1009000006070809000000000000000000000000C9
:0400000508000131BD
:00000001FF
