:020000040800F2
:100000003004002049010008C50400080904000864
:10001000C30400081D020008D90900080000000000
:100020000000000000000000000000000D070008B4
:100030001F0200080000000095050008B90700082D
:100040006301000863010008630100086301000800
:1000500063010008630100085502000863010008FD
:1000600063010008630100086301000863010008E0
:1000700063010008630100086301000863010008D0
:1000800063010008630100086301000863010008C0
:1000900063010008630100086301000863010008B0
:1000A00063010008630100086301000863010008A0
:1000B0006301000863010008630100086301000890
:1000C0006301000863010008630100086301000880
:1000D0006301000863010008630100086301000870
:1000E0007902000863010008630100086301000849
:1000F0006301000863010008630100086301000850
:10010000630100086301000863010008630100083F
:10011000630100086301000863010008630100082F
:10012000630100086301000863010008630100081F
:10013000DFF810D000F030F800480047E50B000869
:10014000AFF300803004002006488047064800478F
:10015000FEE7FEE7FEE7FEE7FEE7FEE7FEE7FEE777
:10016000FEE7FEE7110800083101000830B50B4634
:10017000014600202022012409E021FA02F59D42D7
:1001800005D303FA02F5491B04FA02F52844151EAB
:10019000A2F10102F1DC30BD064C074D06E0E0683B
:1001A00040F0010394E8070098471034AC42F6D3BE
:1001B000FFF7C2FFD40D0008F40D000838B5012187
:1001C000082000F0E9F92020ADF8000010208DF89B
:1001D00003000320104C8DF802006946204600F011
:1001E000C1F80121ADF800106946204600F0BAF8C8
:1001F0000221ADF800106946204600F0B3F8202136
:10020000204600F0FFF80121204600F0FBF8022113
:10021000204600F0F7F838BD000C0140FEE77047BB
:1002200001B503480099016001680029FCD108BDAF
:100230002800002001B44FF47A71009801B04843BF
:10024000AFF3008001B40A21009801B0B0FBF1F0D7
:10025000FFF7E6BF10B5012000F028F8002808D00D
:100260000221044800F0CCF8BDE81040012000F065
:1002700017B810BD000C014010B54FF400542046D3
:1002800000F014F8002808D02021044800F0B8F845
:100290002046BDE8104000F003B810BD000C01403E
:1002A000014908607047000014040140064A0146F5
:1002B00000201268044B0A4014331B680B4202D022
:1002C000002A00D0012070470004014030B51A4ACE
:1002D0008379016853B313688B431360111D0B6856
:1002E0000468A3430B60017911440B68046823433D
:1002F0000B60114B083319680468A14319601C1D79
:1003000021680568A94321604179102905D011446D
:100310000A68006802430A6030BD19680268114328
:100320001960216800680143216030BD00791044E4
:1003300002688A43026030BD0004014010B58A079C
:1003400021F003040649120F21440F238C689340C7
:100350009C438C608B68904003438B6010BD000011
:1003600000000140F0B5CC78002204F00F03E40651
:1003700001D58C7823430C784FF00F0C14F0FF0F4D
:100380004FF0010E1BD005680E880EFA02F42640CD
:10039000A64210D196000CFA06F725EA070703FAE1
:1003A00006F5CE783D43282E02D0482E02D002E03A
:1003B000446100E00461521C082AE5D305600A8804
:1003C000FF2A1CD94468002202F108060EFA06F53D
:1003D0000E882E40AE420ED196000CFA06F7BC43B2
:1003E00003FA06F7CE783C43282E00D14561CE783B
:1003F000482E00D10561521C082AE5D34460F0BDA7
:100400004161704701617047FEE710B500F040F8A8
:10041000BDE81040AFF30080FEB50121052000F0DB
:10042000BBF80124ADF8084004268DF80B6002A942
:100430001548FFF797FF00210846FFF77FFF0027C9
:100440008DF8047008208DF8050000948DF80640A2
:100450006846FFF73BFF6503ADF808508DF80B6069
:1004600002A90A48FFF77EFF0D210220FFF766FF71
:100470008DF804700C208DF8050000958DF806406D
:100480006846FFF723FFFEBD000801400010014051
:1004900008B54FF4C06000F049F806208DF8000060
:1004A00001208DF801008DF802008DF803006846E8
:1004B00000F00AF828208DF80000684600F004F8E3
:1004C00008BDFEE77047000030B50F23C278017801
:1004D0000125F2B1144A126801F1E02102F4E06250
:1004E000C2F5E062120AC2F10404D3404278A2408D
:1004F00084781C401443220181F80024007800F025
:100500001F018D404009800000F1E020C0F800513B
:1005100030BD01F01F0085404809800000F1E02057
:10052000C0F8805130BD00000CED00E002490843E6
:1005300002490860704700000000FA050CED00E079
:100540000907090E002806DA00F00F0000F1E0208C
:1005500080F8141D704700F1E02080F80014704707
:100560000A4B1A6822F0030202431A600848026824
:1005700042F004020260012905D020BF016821F089
:1005800004010160704730BFF8E7000000700040D0
:1005900010ED00E070470000044A0029916901D085
:1005A000014300E081439161704700000010024068
:1005B00030B5204A5168204B11F00C0103D00429BA
:1005C00001D0082901D0036012E05168536801F49A
:1005D00070114FF0020413F4803F04EB914102D0FC
:1005E00053689B0301D5154B00E0134B5943016041
:1005F00051680F2303EA1111114B5C5C0168E14063
:1006000041605468072505EA14241C5D21FA04F4AE
:100610008460546805EAD4241B5DD940C1605268E7
:10062000032303EA9232064B1B1F9A5CB1FBF2F1E3
:10063000016130BD0010024000127A0000093D0047
:1006400018000020034600205909094A01290AD050
:1006500002290AD0516A03F01F02012393400B4282
:1006600000D0012070471168F5E7116AF3E7000038
:10067000001002400248406800F00C007047000083
:10068000001002400B490A6822F480320A600A68AE
:1006900022F480220A60B0F5803F07D0B0F5802FA9
:1006A00003D1086840F4A02008607047086840F44F
:1006B0008030F9E7001002400149086670470000E9
:1006C00000004242034A516821F003010143516096
:1006D000704700000010024010B54FF48030FFF763
:1006E000D1FF3120FFF7AEFF0028FAD00120FFF73D
:1006F000E3FF3920FFF7A6FF0028FAD00220FFF71A
:10070000E1FFFFF7B7FF0828FBD110BD70470000DD
:100710000CB50022264800920192016841F4803114
:1007200001604FF4A063016801F400310191009968
:10073000491C0091019911B900999942F3D10168BE
:10074000890333D5012101911A490A6842F0100248
:100750000A600A6822F003020A600A6842F0020294
:100760000A604168416041684160416841F48061CC
:100770004160416821F47C114160416841F4E81115
:100780004160016841F08071016001688901FCD518
:10079000416821F003014160416841F0020141607C
:1007A0004168C1F381010229FAD10CBD01920CBD4F
:1007B000001002400020024003480168002902D0D6
:1007C0000168491E016070472800002070B50021B3
:1007D0004D1E2846FFF7B4FE0B480C490068B0FBDD
:1007E000F1F1B1F1807F0ED221F07F404FF0E02493
:1007F000401E60610F212846FFF7A2FE0020A06185
:100800000720206170BDFEE700000020A0860100E7
:100810000F4810B5016841F00101016041680D4ABF
:100820001140416001680C4A11400160016821F4E7
:1008300080210160416821F4FE0141604FF41F01F5
:100840008160FFF765FF05494FF00060086010BD4B
:10085000001002400000FFF8FFFFF6FE08ED00E088
:100860000029818902D041F4005101E021F40051B6
:10087000818170470246002012880A4200D0012080
:100880007047000030B50446008A85B00D464CF62E
:10089000FF710840E98801432182A0894EF6F311D7
:1008A0000840A9882A8911436A8902431143A1811A
:1008B000A08A4FF6FF410840A9890143A1826846FA
:1008C000FFF776FE1948844201D1039800E00298B0
:1008D000A189090400EBC00101EB0010296801D5D2
:1008E000490000E08900B0FBF1F06422B0FBF2F1B6
:1008F00009010B096FF018056B4300EB8300A38916
:100900001D044FF0320306D503EBC000B0FBF2F03C
:1009100000F0070005E003EB0010B0FBF2F000F080
:100920000F000843208105B030BD000000380140B1
:1009300070B5074C054680212046FFF79BFF002835
:10094000F9D029462046BDE8704000F003B8000009
:1009500000380140C1F308018180704730B504467A
:1009600085B0012144F20400FFF716FE4FF4007138
:10097000ADF8101018218DF813100320144D8DF8C8
:10098000120004A92846FFF7EDFC2915ADF8101058
:1009900004208DF8130004A92846FFF7E3FC00208B
:1009A000ADF804000094ADF80600ADF80800ADF80D
:1009B0000C000C20074CADF80A0069462046FFF7F2
:1009C00061FF01212046FFF74BFF05B030BD00005D
:1009D0000008014000380140FEE700000FB4054B5D
:1009E00010B503A9044A029800F018F810BC5DF88D
:1009F00014FB0000D50B00082C00002002E008C802
:100A0000121F08C1002AFAD170477047002001E088
:100A100001C1121F002AFBD1704700002DE9FF4FD2
:100A20008BB09A460F460546002606E025280BD0D7
:100A300052460D9990476D1C761C28780028F5D1F8
:100A40000FB03046BDE8F08F0024A0460122604977
:100A500000E0044315F8013F203B02FA03F008428E
:100A6000F7D128782E2817D115F8010F44F0040487
:100A70002A280ED06FF02F022878A0F13001092922
:100A80000AD808EB880102EB410100EB01086D1C5C
:100A9000F2E757F8048B6D1C287869283ED006DCF5
:100AA0000028CDD063280BD0642804D136E0732809
:100AB00010D075284BD052460D999047761C85E092
:100AC00017F8040B8DF8000000208DF80100E946AE
:100AD000012003E057F8049B4FF0FF3061074FF00F
:100AE000000401D40AE0641C44450DDA8442FADBB8
:100AF00019F804100029F6D106E0641C8442FCDBDE
:100B000019F804100029F8D1264404E019F8010B63
:100B100052460D999047641EF8D257E001CF4FF02E
:100B20000A0B002802DA40422D2102E0210504D5FB
:100B30002B218DF82410012103E0E10705D02021AD
:100B4000F7E70DF1200908910CE00021F9E701CF4A
:100B50004FF00A0BF9E75946FFF708FB01F13002A5
:100B600009F8012D0028F6D1ADEB090000F1200BAA
:100B7000600701D44FF00108D84502DDA8EB0B0057
:100B800000E000208046002406E009A85246005DEF
:100B90000D999047641C761C08988442F5DB04E0AC
:100BA000302052460D999047761CB8F10001A8F10B
:100BB0000108F5DC05E019F8010B52460D99904744
:100BC000761CBBF10001ABF1010BF4DC6D1C34E7CA
:100BD0000928010010B50446C0B2FFF7A9FE20465F
:100BE00010BD00008AB0FFF7E9FAFFF70EFCFFF72F
:100BF000EDFD4FF4E1394846FFF7B0FE394C3A4D70
:100C00004FF4FA7839A0FFF7E9FE01212046FFF7FB
:100C1000F7FB46464046FFF70DFB01212046FFF754
:100C2000F1FB3046FFF706FB37A0FFF7D7FE402168
:100C30002846FFF71FFE0028F9D001210846FFF7DC
:100C40008FFCFFF717FD07466846FFF7B1FCFFF77B
:100C500043FDFFF7BBFD4846FFF780FEFFF70AFDA7
:100C6000064605A8FFF7A4FC2DA0FFF7B7FE002F4E
:100C700034D032A132A0FFF7B1FE35A00099FFF7C2
:100C8000ADFE37A00199FFF7A9FE39A00299FFF741
:100C9000A5FE3BA00399FFF7A1FE3DA0FFF79EFE36
:100CA000082E1DD041A126A0FFF798FE28A0059987
:100CB000FFF794FE2AA00699FFF790FE2CA0079953
:100CC000FFF78CFE2EA00899FFF788FE38A0FFF7EB
:100CD00085FE4FF4FA60FFF7ADFA93E733A1C9E759
:100CE00016A1E0E7000C014000380140C2CCB5C6B7
:100CF000C1C1A3ACCFB5CDB3D5FDB3A3B9A4D7F7CC
:100D0000D6D02E2E2E0D0A00D7BCB1B8BDF8C8EB38
:100D1000CDA3D6B9C4A3CABD2E2E2E0D0A00000045
:100D20000D0A2D2D2D20BBBDD0D1BAF3CAB1D6D31B
:100D3000D7B4CCAC202D2D2D0D0A0000504C4C000A
:100D4000CAB1D6D3D4B43A2025730D0A00000000EE
:100D5000535953434C4B3A20256420487A0D0A00DE
:100D600048434C4B20203A20256420487A0D0A0045
:100D700050434C4B31203A20256420487A0D0A001C
:100D800050434C4B32203A20256420487A0D0A000B
:100D90000D0A2D2D2D20D6D8C5E4BAF3CAB1D6D36D
:100DA000D7B4CCAC202D2D2D0D0A0000485349009E
:100DB0000D0AB2E2CAD4CDEAB3C9A3ACB5C8B4FD3A
:100DC000CFC2D2BBB4CED1ADBBB72E2E2E0D0A0DE5
:100DD0000A000000F40D00080000002030000000B0
:100DE000FC090008240E0008300000200004000068
:100DF0000C0A000800A24A040000000000000000E5
:100E000001020304060708090204060800000000A6
:100E100001020304010203040607080900000000A0
:040E200000000000CE
:0400000508000131BD
:00000001FF
